{
  "_format": "hh3-artifact-1",
  "contractName": "VotingFactory",
  "sourceName": "contracts/votingFactory.sol",
  "abi": [
    {
      "anonymous": false,
      "inputs": [
        {
          "indexed": true,
          "internalType": "uint256",
          "name": "index",
          "type": "uint256"
        },
        {
          "indexed": true,
          "internalType": "address",
          "name": "voting",
          "type": "address"
        },
        {
          "indexed": true,
          "internalType": "address",
          "name": "creator",
          "type": "address"
        },
        {
          "indexed": false,
          "internalType": "string",
          "name": "name",
          "type": "string"
        }
      ],
      "name": "VotingCreated",
      "type": "event"
    },
    {
      "inputs": [
        {
          "internalType": "string",
          "name": "name",
          "type": "string"
        }
      ],
      "name": "createVoting",
      "outputs": [
        {
          "internalType": "address",
          "name": "",
          "type": "address"
        }
      ],
      "stateMutability": "nonpayable",
      "type": "function"
    },
    {
      "inputs": [
        {
          "internalType": "uint256",
          "name": "",
          "type": "uint256"
        }
      ],
      "name": "deployments",
      "outputs": [
        {
          "internalType": "address",
          "name": "contractAddress",
          "type": "address"
        },
        {
          "internalType": "address",
          "name": "creator",
          "type": "address"
        },
        {
          "internalType": "string",
          "name": "name",
          "type": "string"
        },
        {
          "internalType": "uint256",
          "name": "createdAt",
          "type": "uint256"
        }
      ],
      "stateMutability": "view",
      "type": "function"
    },
    {
      "inputs": [],
      "name": "deploymentsCount",
      "outputs": [
        {
          "internalType": "uint256",
          "name": "",
          "type": "uint256"
        }
      ],
      "stateMutability": "view",
      "type": "function"
    }
  ],
  "bytecode": "0x6080604052348015600e575f5ffd5b50611a0c8061001c5f395ff3fe608060405234801561000f575f5ffd5b506004361061003f575f3560e01c806306609bbe14610043578063677c3f9c1461006f578063a4cb184c1461009a575b5f5ffd5b610056610051366004610323565b6100b1565b604051610066949392919061033a565b60405180910390f35b61008261007d366004610394565b61016c565b6040516001600160a01b039091168152602001610066565b6100a360015481565b604051908152602001610066565b5f602081905290815260409020805460018201546002830180546001600160a01b039384169492909316926100e590610402565b80601f016020809104026020016040519081016040528092919081815260200182805461011190610402565b801561015c5780601f106101335761010080835404028352916020019161015c565b820191905f5260205f20905b81548152906001019060200180831161013f57829003601f168201915b5050505050908060030154905084565b5f5f60405161017a90610316565b604051809103905ff080158015610193573d5f5f3e3d5ffd5b5060405163f2fde38b60e01b81523360048201529091506001600160a01b0382169063f2fde38b906024015f604051808303815f87803b1580156101d5575f5ffd5b505af11580156101e7573d5f5f3e3d5ffd5b505050505f60015490506040518060800160405280836001600160a01b03168152602001336001600160a01b0316815260200186868080601f0160208091040260200160405190810160405280939291908181526020018383808284375f92018290525093855250504260209384015250838152808252604090819020835181546001600160a01b03199081166001600160a01b039283161783559385015160018301805490951691161790925582015160028201906102a7908261049a565b50606091909101516003909101556102c0816001610555565b60015560405133906001600160a01b0384169083907f7eaaf1003bbc9e873550e47b738bc41e09420f82f0eeee57c0b5166e5c49bf9990610304908a908a90610574565b60405180910390a45090505b92915050565b611434806105a383390190565b5f60208284031215610333575f5ffd5b5035919050565b60018060a01b038516815260018060a01b0384166020820152608060408201525f8351806080840152806020860160a085015e5f60a0828501015260a0601f19601f83011684010191505082606083015295945050505050565b5f5f602083850312156103a5575f5ffd5b823567ffffffffffffffff8111156103bb575f5ffd5b8301601f810185136103cb575f5ffd5b803567ffffffffffffffff8111156103e1575f5ffd5b8560208284010111156103f2575f5ffd5b6020919091019590945092505050565b600181811c9082168061041657607f821691505b60208210810361043457634e487b7160e01b5f52602260045260245ffd5b50919050565b634e487b7160e01b5f52604160045260245ffd5b601f82111561049557805f5260205f20601f840160051c810160208510156104735750805b601f840160051c820191505b81811015610492575f815560010161047f565b50505b505050565b815167ffffffffffffffff8111156104b4576104b461043a565b6104c8816104c28454610402565b8461044e565b6020601f8211600181146104fa575f83156104e35750848201515b5f19600385901b1c1916600184901b178455610492565b5f84815260208120601f198516915b828110156105295787850151825560209485019460019092019101610509565b508482101561054657868401515f19600387901b60f8161c191681555b50505050600190811b01905550565b8082018082111561031057634e487b7160e01b5f52601160045260245ffd5b60208152816020820152818360408301375f818301604090810191909152601f909201601f1916010191905056fe6080604052348015600e575f5ffd5b503380603357604051631e4fbdf760e01b81525f600482015260240160405180910390fd5b603a81603f565b50608e565b5f80546001600160a01b038381166001600160a01b0319831681178455604051919092169283917f8be0079c531659141344cd1fd0a4f28419497f9722a3daafe3b4186f6b6457e09190a35050565b6113998061009b5f395ff3fe608060405234801561000f575f5ffd5b50600436106100fb575f3560e01c8063a7bfab1611610093578063d4f50f9811610063578063d4f50f98146101c8578063ee74c67814610201578063f2fde38b14610209578063f4ab9adf1461021c575f5ffd5b8063a7bfab16146101a7578063bdc01431146101af578063c7038a4e146101b8578063c88af42f146101c0575f5ffd5b8063715018a6116100ce578063715018a61461014b5780638da5cb5b14610153578063a1edffa21461016d578063a2788cce14610187575f5ffd5b80630d15fd77146100ff578063230796ae1461011b5780632fdae3c514610130578063378a217814610143575b5f5ffd5b61010860025481565b6040519081526020015b60405180910390f35b61012e610129366004610fa4565b61022f565b005b61012e61013e366004610fbb565b61045e565b61012e6106f4565b61012e6107ae565b5f546040516001600160a01b039091168152602001610112565b60035461017a9060ff1681565b604051610112919061105d565b61019a610195366004610fa4565b6107c1565b6040516101129190611071565b61012e6108cd565b61010860015481565b61012e61097f565b61012e610b30565b6101db6101d63660046110ba565b610c29565b604080518251151581526020808401511515908201529181015190820152606001610112565b61012e610cbc565b61012e6102173660046110ba565b610d69565b61012e61022a3660046110ba565b610da6565b335f9081526005602052604090205460ff166102665760405162461bcd60e51b815260040161025d906110e7565b60405180910390fd5b6003805460ff16600581111561027e5761027e611029565b1461029b5760405162461bcd60e51b815260040161025d90611113565b335f90815260056020526040902054610100900460ff1615156001036102fc5760405162461bcd60e51b8152602060048201526016602482015275165bdd481a185d9948185b1c9958591e481d9bdd195960521b604482015260640161025d565b60045481106103425760405162461bcd60e51b8152602060048201526012602482015271141c9bdc1bdcd85b081b9bdd08199bdd5b9960721b604482015260640161025d565b335f90815260056020526040902060018101829055805461ff001916610100179055600480548290811061037857610378611154565b5f918252602082206001600290920201018054916103958361117c565b909155505060028054905f6103a98361117c565b91905055505f6004600154815481106103c4576103c4611154565b905f5260205f2090600202016001015490505f600483815481106103ea576103ea611154565b905f5260205f2090600202016001015490508181118061041557508181148015610415575060015483105b156104205760018390555b60408051338152602081018590527f4d99b957a2bc29a30ebd96a7be8e68fe50a3c701db28a91436490b7d53870ca4910160405180910390a1505050565b335f9081526005602052604090205460ff1661048c5760405162461bcd60e51b815260040161025d906110e7565b600160035460ff1660058111156104a5576104a5611029565b146104f25760405162461bcd60e51b815260206004820152601d60248201527f50726f706f73616c7320617265206e6f7420616c6c6f77656420796574000000604482015260640161025d565b5f8282604051602001610506929190611194565b6040516020818303038152906040528051906020012090506040516020016105389060208082525f9082015260400190565b60405160208183030381529060405280519060200120810361059c5760405162461bcd60e51b815260206004820152601d60248201527f456d7074792070726f706f73616c206973206e6f7420616c6c6f776564000000604482015260640161025d565b5f8181526006602052604090205460ff16156105fa5760405162461bcd60e51b815260206004820152601760248201527f50726f706f73616c20616c726561647920657869737473000000000000000000604482015260640161025d565b5f818152600660209081526040808320805460ff191660011790558051808201909152606081529081019190915283838080601f0160208091040260200160405190810160405280939291908181526020018383808284375f920182905250938552505060048054600181018255925250815182916002027f8a35acfbc15ff81a39ae7d344fd709f28e8600b4aa8c65c6b64bfe7fe36bd19b019081906106a1908261125a565b50602091909101516001918201556004547f92e393e9b54e2f801d3ea4beb0c5e71a21cc34a5d34b77d0fb8a3aa1650dc18f916106dd91611315565b60405190815260200160405180910390a150505050565b6106fc610f29565b600460035460ff16600581111561071557610715611029565b146107755760405162461bcd60e51b815260206004820152602a60248201527f43757272656e7420737461747573206973206e6f7420766f74696e67207365736044820152691cda5bdb88195b99195960b21b606482015260840161025d565b6003805460ff191660059081179091556040515f5160206113445f395f51905f52916107a49160049190611328565b60405180910390a1565b6107b6610f29565b6107bf5f610f55565b565b60408051808201909152606081525f6020820152335f9081526005602052604090205460ff166108035760405162461bcd60e51b815260040161025d906110e7565b6004828154811061081657610816611154565b905f5260205f2090600202016040518060400160405290815f8201805461083c906111d6565b80601f0160208091040260200160405190810160405280929190818152602001828054610868906111d6565b80156108b35780601f1061088a576101008083540402835291602001916108b3565b820191905f5260205f20905b81548152906001019060200180831161089657829003601f168201915b505050505081526020016001820154815250509050919050565b6108d5610f29565b6003805460ff1660058111156108ed576108ed611029565b1461090a5760405162461bcd60e51b815260040161025d90611113565b5f600254116109535760405162461bcd60e51b8152602060048201526015602482015274139bc81d9bdd19481a185cc81899595b8818d85cdd605a1b604482015260640161025d565b6003805460ff1916600490811782556040515f5160206113445f395f51905f52926107a4929091611328565b610987610f29565b5f60035460ff16600581111561099f5761099f611029565b146109fe5760405162461bcd60e51b815260206004820152602960248201527f5265676973746572696e672070726f706f73616c732063616e742062652073746044820152686172746564206e6f7760b81b606482015260840161025d565b600380546001919060ff19168280021790555060408051808201909152606081525f602082015260408051808201909152600a815269424c414e4b20564f544560b01b60208201528152600480546001810182555f91909152815182916002027f8a35acfbc15ff81a39ae7d344fd709f28e8600b4aa8c65c6b64bfe7fe36bd19b01908190610a8d908261125a565b50602082015181600101555050600160065f604051602001610acd906020808252600a9082015269424c414e4b20564f544560b01b604082015260600190565b6040516020818303038152906040528051906020012081526020019081526020015f205f6101000a81548160ff0219169083151502179055505f5160206113445f395f51905f525f6001604051610b25929190611328565b60405180910390a150565b610b38610f29565b600160035460ff166005811115610b5157610b51611029565b14610baf5760405162461bcd60e51b815260206004820152602860248201527f5265676973746572696e672070726f706f73616c7320686176656e74207374616044820152671c9d1959081e595d60c21b606482015260840161025d565b600454600110610bfa5760405162461bcd60e51b8152602060048201526016602482015275139bc81c1c9bdc1bdcd85b081c9959da5cdd195c995960521b604482015260640161025d565b6003805460ff191660029081179091556040515f5160206113445f395f51905f52916107a49160019190611328565b604080516060810182525f808252602080830182905282840182905233825260059052919091205460ff16610c705760405162461bcd60e51b815260040161025d906110e7565b506001600160a01b03165f908152600560209081526040918290208251606081018452815460ff8082161515835261010090910416151592810192909252600101549181019190915290565b610cc4610f29565b600260035460ff166005811115610cdd57610cdd611029565b14610d3e5760405162461bcd60e51b815260206004820152602b60248201527f5265676973746572696e672070726f706f73616c73207068617365206973206e60448201526a1bdd08199a5b9a5cda195960aa1b606482015260840161025d565b6003805460ff1916811781556040515f5160206113445f395f51905f52916107a49160029190611328565b610d71610f29565b6001600160a01b038116610d9a57604051631e4fbdf760e01b81525f600482015260240161025d565b610da381610f55565b50565b610dae610f29565b5f60035460ff166005811115610dc657610dc6611029565b14610e1f5760405162461bcd60e51b815260206004820152602360248201527f566f7465727320726567697374726174696f6e206973206e6f74206f70656e206044820152621e595d60ea1b606482015260840161025d565b6001600160a01b038116610e755760405162461bcd60e51b815260206004820152601e60248201527f5a65726f20616464726573732063616e6e6f74206265206120766f7465720000604482015260640161025d565b6001600160a01b0381165f9081526005602052604090205460ff161515600103610ed65760405162461bcd60e51b8152602060048201526012602482015271105b1c9958591e481c9959da5cdd195c995960721b604482015260640161025d565b6001600160a01b0381165f81815260056020908152604091829020805460ff1916600117905590519182527fb6be2187d059cc2a55fe29e0e503b566e1e0f8c8780096e185429350acffd3dd9101610b25565b5f546001600160a01b031633146107bf5760405163118cdaa760e01b815233600482015260240161025d565b5f80546001600160a01b038381166001600160a01b0319831681178455604051919092169283917f8be0079c531659141344cd1fd0a4f28419497f9722a3daafe3b4186f6b6457e09190a35050565b5f60208284031215610fb4575f5ffd5b5035919050565b5f5f60208385031215610fcc575f5ffd5b823567ffffffffffffffff811115610fe2575f5ffd5b8301601f81018513610ff2575f5ffd5b803567ffffffffffffffff811115611008575f5ffd5b856020828401011115611019575f5ffd5b6020919091019590945092505050565b634e487b7160e01b5f52602160045260245ffd5b6006811061105957634e487b7160e01b5f52602160045260245ffd5b9052565b6020810161106b828461103d565b92915050565b602081525f82516040602084015280518060608501528060208301608086015e5f60808286010152602085015160408501526080601f19601f8301168501019250505092915050565b5f602082840312156110ca575f5ffd5b81356001600160a01b03811681146110e0575f5ffd5b9392505050565b6020808252601290820152712cb7ba93b932903737ba1030903b37ba32b960711b604082015260600190565b60208082526021908201527f566f74696e672073657373696f6e20686176656e7420737461727465642079656040820152601d60fa1b606082015260800190565b634e487b7160e01b5f52603260045260245ffd5b634e487b7160e01b5f52601160045260245ffd5b5f6001820161118d5761118d611168565b5060010190565b60208152816020820152818360408301375f818301604090810191909152601f909201601f19160101919050565b634e487b7160e01b5f52604160045260245ffd5b600181811c908216806111ea57607f821691505b60208210810361120857634e487b7160e01b5f52602260045260245ffd5b50919050565b601f82111561125557805f5260205f20601f840160051c810160208510156112335750805b601f840160051c820191505b81811015611252575f815560010161123f565b50505b505050565b815167ffffffffffffffff811115611274576112746111c2565b6112888161128284546111d6565b8461120e565b6020601f8211600181146112ba575f83156112a35750848201515b5f19600385901b1c1916600184901b178455611252565b5f84815260208120601f198516915b828110156112e957878501518255602094850194600190920191016112c9565b508482101561130657868401515f19600387901b60f8161c191681555b50505050600190811b01905550565b8181038181111561106b5761106b611168565b60408101611336828561103d565b6110e0602083018461103d56fe0a97a4ee45751e2abf3e4fc8946939630b11b371ea8ae39ccdc3056e98f5cc3fa26469706673582212200b04d6bb49738602c5e0621cec4a01a4c2b746921a6689e7404e7f1f24fc8af464736f6c634300081c0033a26469706673582212203fb8aa3ea81171a8256d1e7fd6de42e3207fd1271d8878100222dae033d08dfc64736f6c634300081c0033",
  "linkReferences": {},
  "deployedLinkReferences": {},
  "immutableReferences": {},
  "inputSourceName": "project/contracts/votingFactory.sol",
  "buildInfoId": "solc-0_8_28-833a71b017d414d6c4665385d10efe5bac22855a"
}